:040000005CEF02F0BF
:08000800046ED8CF05F0E0CF33
:1000100006F00001E9CF0CF0EACF07F0E1CF08F0DD
:10002000E2CF09F0D9CF0AF0DACF0BF0F3CF12F01C
:10003000F4CF13F0FACF14F0F5CF15F0F6CF16F099
:10004000F7CF17F000C00EF001C00FF002C010F0A3
:1000500003C011F09DA230EF00F09EB269EF00F0F6
:10006000F2A836EF00F0F2B27EEF00F0F0A63CEF1F
:1000700000F0F0B0B8EF00F0F0A842EF00F0F0B2FE
:10008000BBEF00F00EC000F00FC001F010C002F096
:1000900011C003F00CC0E9FF07C0EAFF078E08C0DB
:1000A000E1FF09C0E2FF0AC0D9FF0BC0DAFF12C0AE
:1000B000F3FF13C0F4FF14C0FAFF15C0F5FF16C01C
:1000C000F6FF17C0F7FF045006C0E0FF05C0D8FFD9
:1000D00010001F5209E1010E1926D8B01A2AD8B40F
:1000E0001B2AD8B41C2A07D01C6A1B6A1A6A196A10
:1000F0001F6A959C8C7C9E9242EF00F0F2CF34F008
:10010000F29EA96AA69CA69EA680A85034BEF28E36
:10011000000A16E1A96A010EA86EA69CA69EA684F6
:10012000F250006EF29E0F01550EA76EAA0EA76E3A
:10013000A682A6B2FED7A6940050F21214D00001F7
:10014000A96AA86AA69CA69EA684F250006EF29E9A
:100150000F01550EA76EAA0EA76EA682A6B2FED7F5
:10016000A6940050F212FF00F292000142EF00F05C
:10017000F09042EF00F0F09242EF00F0EA6A320EA7
:10018000E96EEF500DE0060E016E006A002EFED7FC
:10019000012EFBD77B0E006E002EFED7EF2EF3D77D
:1001A000000C306A280E2F6E2C6A2C50030827E3AF
:1001B00030C003F02F50E96E03C0EAFFEFCF31F0FB
:1001C0002EC0A9FF31C0A8FFA69CA69EA684F2500F
:1001D000006EF29E0F01550EA76EAA0EA76EA682A4
:1001E000A6B2FED7A6940050F2122F2AD8B4302A15
:1001F0002E2A080E326E0001C1DF2C2AD6D739EF25
:1002000001F021C023F020C022F0020E2E6E010E5C
:10021000A96E1DC0A8FFA69CA69EA684F250006EE3
:10022000F29E0F01550EA76EAA0EA76EA682A6B269
:10023000FED7A6940050F212080E326E00019EDF27
:100240002D6A1D502D5C1BE222C0E9FF23C0EAFF8E
:10025000EFCF00F0ECCF01F0ECCF02F0ECCF03F0E9
:1002600003C02BF002C02AF001C029F000C028F022
:1002700098D7040E2226D8B0232A2D2AE2D7ACEF35
:1002800001F095988C8821C023F020C022F02752DD
:1002900016E1265214E12550310811E3100E006ECC
:1002A000002EFED70000C284C2B4FED7C3CF24F014
:1002B000C4CF25F0266A276A959E8C8EE8D7959E36
:1002C0008C9E010E1F6E1E6E640E326E57DF100E76
:1002D000006E002EFED70000C284C2B4FED7C3CF8A
:1002E00024F0C4CF25F0266A276A1E520CE127525B
:1002F00013E1265211E12550310805E2FF0A0CE115
:100300002450000809E31E2C23D0275221E1265255
:100310001FE1255031081CE31E2C02D01E6A02D0BA
:10032000010E1E6E22C0E9FF23C0EAFF19C0EFFFD5
:100330001AC0ECFF1BC0ECFF1CC0ECFF040E222611
:10034000D8B0232A1D2A010E1F6E640E326E16DFEE
:10035000928280A204D055D7959E8C8E01D0B7D7BB
:100360009CEF02F0306A280E2F6E2C6A2C50030886
:1003700018E330C003F02F50E96E03C0EAFFF2CF5C
:1003800033F0F29E2EC0A9FFA69CA69EA680A85080
:1003900033BEF28EEF6E2F2AD8B4302A2E2A2C2AA2
:1003A000E5D728C000F029C001F02AC002F02BC018
:1003B00003F0F4EF01F021C023F020C022F0020E80
:1003C0002E6EF2CF31F0F29E010EA96EA69CA69E73
:1003D000A680A85031BEF28E1D5C01E0FFD72D6AC9
:1003E0001D502D5C20E2BED722C0E9FF23C0EAFFEA
:1003F000EFCF00F0ECCF01F0ECCF02F0ECCF03F048
:100400000050285C09E10150295C06E102502A5C99
:1004100003E103502B5C01E0FFD7040E2226D8B085
:10042000232A2D2ADDD756EF02F0959A8C8A21C017
:1004300023F020C022F0928080B003D0959C8C8C59
:10044000FAD7959C8C9C010E1F6E1E6E959C8C7C21
:10045000020E316EFA0E326E91DE312EFBD71E5235
:1004600003E1928080B005D01E2C1CD0928080B019
:1004700019D01E2C02D01E6A02D0010E1E6E22C0A0
:10048000E9FF23C0EAFF19C0EFFF1AC0ECFF1BC051
:10049000ECFF1CC0ECFF040E2226D8B0232A1D2A34
:1004A000010E1F6E928280A204D085D7959C8C8C01
:1004B00001D0CCD79EEF02F0F86AD09E078EEA6A90
:1004C000E96A1C6A1B6A1A6A196A1F6A216A500E55
:1004D000206EC180C182C184C196020E316EFA0EB7
:1004E000326E4CDE312EFBD7C19CC28CC28EC19EB7
:1004F000C280C190C182C184C186000E016EC2500B
:10050000C70B0110C26E780E0409CA6EF90ECB6ECD
:100510009D82F288F086F088C00EF2121D6AF2CF3A
:1005200031F0F29EA96AA69CA69EA680A85031BE74
:0E053000F28E000A02E1A5D601D077D70300B3
:020000040030CA
:0E00000000220D0E000181000FC00FE00F4026
:00000001FF
;PIC18F452
;CRC=C3CA  CREATED="08-Apr-12 22:52"
