:04000000A9EF00F074
:08000800046ED8CF05F0E0CF33
:1000100006F00001E9CF0CF0EACF07F0E1CF08F0DD
:10002000E2CF09F0D9CF0AF0DACF0BF0F3CF12F01C
:10003000F4CF13F0FACF14F0F5CF15F0F6CF16F099
:10004000F7CF17F000C00EF001C00FF002C010F0A3
:1000500003C011F09DA230EF00F09EB269EF00F0F6
:10006000F2A836EF00F0F2B287EF00F0F0A63CEF16
:1000700000F0F0B096EF00F0F0A842EF00F0F0B220
:10008000A5EF00F00EC000F00FC001F010C002F0AC
:1000900011C003F00CC0E9FF07C0EAFF078E08C0DB
:1000A000E1FF09C0E2FF0AC0D9FF0BC0DAFF12C0AE
:1000B000F3FF13C0F4FF14C0FAFF15C0F5FF16C01C
:1000C000F6FF17C0F7FF045006C0E0FF05C0D8FFD9
:1000D0001000010E1A26D8B01B2AD8B41C2AD8B496
:1000E0001D2A9E9242EF00F0EA6A2E0EE96EEF5052
:1000F0000DE0060E016E006A002EFED7012EFBD722
:100100007B0E006E002EFED7EF2EF3D7000CF2927E
:1001100095948C840A0E2E6EE7DF95948C940A0ECB
:100120002E6EE2DFF4D7F29242EF00F0F090959657
:100130008C860A0E2E6ED8DF95968C960A0E2E6E41
:10014000D3DFF4D7F09042EF00F0FF00F09242EFDF
:1001500000F0F86AD09E078EEA6AE96A1D6A1C6A96
:100160001B6A1A6A216A500E206EC180C182C18446
:10017000C196000E956E780E0409CA6EF90ECB6E0C
:100180009D82F288F086F088C00EF21295968C86D9
:10019000196AF2BE198EF29E0A0E2E6EA5DF19BEE6
:1001A000F28E95968C96196AF2BE198EF29E0A0E00
:0C01B0002E6E9ADF19BEF28EE9D7030014
:020000040030CA
:0E00000000220D0E000181000FC00FE00F4026
:00000001FF
;PIC18F452
;CRC=2082  CREATED="04-Apr-12 18:04"
