:04000000E8EF00F035
:08000800046ED8CF05F0E0CF33
:1000100006F00001E9CF0CF0EACF07F0E1CF08F0DD
:10002000E2CF09F0D9CF0AF0DACF0BF0F3CF12F01C
:10003000F4CF13F0FACF14F0F5CF15F0F6CF16F099
:10004000F7CF17F000C00EF001C00FF002C010F0A3
:1000500003C011F09DA230EF00F09EB269EF00F0F6
:10006000F2A836EF00F0F2B274EF00F0F0A63CEF29
:1000700000F0F0B077EF00F0F0A842EF00F0F0B23F
:100080007AEF00F00EC000F00FC001F010C002F0D7
:1000900011C003F00CC0E9FF07C0EAFF078E08C0DB
:1000A000E1FF09C0E2FF0AC0D9FF0BC0DAFF12C0AE
:1000B000F3FF13C0F4FF14C0FAFF15C0F5FF16C01C
:1000C000F6FF17C0F7FF045006C0E0FF05C0D8FFD9
:1000D0001000010E1926D8B01A2AD8B41B2AD8B499
:1000E0001C2A9E9242EF00F0F29242EF00F0F09054
:1000F00042EF00F0F09242EF00F0EA6A2C0EE96E57
:10010000EF500DE0060E016E006A002EFED7012EA4
:10011000FBD77B0E006E002EFED7EF2EF3D7BDEF80
:1001200000F02B6A230E2A6E276A2750030827E364
:100130002BC003F02A50E96E03C0EAFFEFCF2CF08A
:1001400029C0A9FF2CC0A8FFA69CA69EA684F25099
:10015000006EF29E0F01550EA76EAA0EA76EA68224
:10016000A6B2FED7A6940050F2122A2AD8B42B2A9F
:10017000292A080E2C6E0001C0D7272AD6D7E0EF17
:1001800000F020C022F01FC021F0010E296E286A65
:100190001D50285C1BE221C0E9FF22C0EAFFEFCF1F
:1001A00000F0ECCF01F0ECCF02F0ECCF03F003C095
:1001B00026F002C025F001C024F000C023F0B1D722
:1001C000040E2126D8B0222A282AE2D75CEF01F0BB
:1001D000F86AD09E078EEA6AE96A1C6A1B6A1A6A84
:1001E000196A206A500E1F6EC180C182C184C196F7
:1001F000000E956E780E0409CA6EF90ECB6E9D82C4
:10020000F288F086F088C00EF21220C022F01FC0E3
:1002100021F0928080B001D0FCD71C6A1B6A1A6A58
:10022000196A010E1E6E1D6A95968C86A96A450E86
:10023000A86EA69CA69EA684F250006EF29E0F01A8
:10024000550EA76EAA0EA76EA682A6B2FED7A694DA
:100250000050F2121E5203E1928080B005D01E2C95
:100260001ED0928080B01BD01E2C02D01E6A02D0FD
:10027000010E1E6E21C0E9FF22C0EAFF19C0EFFF88
:100280001AC0ECFF1BC0ECFF1CC0ECFF040E2126C3
:10029000D8B0222A1D2A1C6A1B6A1A6A196A92821D
:1002A00080A208D095948C8495948C84000169D7A1
:0E02B00003D00F01CFD7000195948C9403006A
:020000040030CA
:0E00000000220D0E000181000FC00FE00F4026
:00000001FF
;PIC18F452
;CRC=AB95  CREATED="06-Apr-12 14:51"
