:1000000015EF00F0EA6A060EE96EEF500DE0060EFD
:10001000016E006A002EFED7012EFBD77B0E006E0C
:10002000002EFED7EF2EF3D7000CF86AD09EEA6AB6
:10003000E96AC180C182C184C196D36A926AFF0E07
:10004000896E936A8A6E946A8B6E956A8C6E9690AE
:10005000969296948D6E94928B8294908B809298C7
:100060008988020E056EFA0E066ECCDF052EFBD7D0
:10007000926A896A936A8A6A946A8B6A956A8C6AB8
:100080009690969296948D6A94928B9294908B907F
:1000900092988998020E056EFA0E066EB3DF052E51
:0600A000FBD7CCD70300E2
:020000040030CA
:0E00000000270D0E000181000FC00FE00F4021
:00000001FF
;PIC18F452
;CRC=AA26  CREATED="02-Apr-12 12:18"
